{
  "_format": "hh-sol-artifact-1",
  "contractName": "nft",
  "sourceName": "contracts/nft.sol",
  "abi": [
    {
      "inputs": [
        {
          "internalType": "string",
          "name": "_uri",
          "type": "string"
        },
        {
          "internalType": "uint256",
          "name": "_maxSupply",
          "type": "uint256"
        }
      ],
      "stateMutability": "nonpayable",
      "type": "constructor"
    },
    {
      "inputs": [
        {
          "internalType": "address",
          "name": "sender",
          "type": "address"
        },
        {
          "internalType": "uint256",
          "name": "balance",
          "type": "uint256"
        },
        {
          "internalType": "uint256",
          "name": "needed",
          "type": "uint256"
        },
        {
          "internalType": "uint256",
          "name": "tokenId",
          "type": "uint256"
        }
      ],
      "name": "ERC1155InsufficientBalance",
      "type": "error"
    },
    {
      "inputs": [
        {
          "internalType": "address",
          "name": "approver",
          "type": "address"
        }
      ],
      "name": "ERC1155InvalidApprover",
      "type": "error"
    },
    {
      "inputs": [
        {
          "internalType": "uint256",
          "name": "idsLength",
          "type": "uint256"
        },
        {
          "internalType": "uint256",
          "name": "valuesLength",
          "type": "uint256"
        }
      ],
      "name": "ERC1155InvalidArrayLength",
      "type": "error"
    },
    {
      "inputs": [
        {
          "internalType": "address",
          "name": "operator",
          "type": "address"
        }
      ],
      "name": "ERC1155InvalidOperator",
      "type": "error"
    },
    {
      "inputs": [
        {
          "internalType": "address",
          "name": "receiver",
          "type": "address"
        }
      ],
      "name": "ERC1155InvalidReceiver",
      "type": "error"
    },
    {
      "inputs": [
        {
          "internalType": "address",
          "name": "sender",
          "type": "address"
        }
      ],
      "name": "ERC1155InvalidSender",
      "type": "error"
    },
    {
      "inputs": [
        {
          "internalType": "address",
          "name": "operator",
          "type": "address"
        },
        {
          "internalType": "address",
          "name": "owner",
          "type": "address"
        }
      ],
      "name": "ERC1155MissingApprovalForAll",
      "type": "error"
    },
    {
      "anonymous": false,
      "inputs": [
        {
          "indexed": true,
          "internalType": "address",
          "name": "account",
          "type": "address"
        },
        {
          "indexed": true,
          "internalType": "address",
          "name": "operator",
          "type": "address"
        },
        {
          "indexed": false,
          "internalType": "bool",
          "name": "approved",
          "type": "bool"
        }
      ],
      "name": "ApprovalForAll",
      "type": "event"
    },
    {
      "anonymous": false,
      "inputs": [
        {
          "indexed": true,
          "internalType": "address",
          "name": "operator",
          "type": "address"
        },
        {
          "indexed": true,
          "internalType": "address",
          "name": "from",
          "type": "address"
        },
        {
          "indexed": true,
          "internalType": "address",
          "name": "to",
          "type": "address"
        },
        {
          "indexed": false,
          "internalType": "uint256[]",
          "name": "ids",
          "type": "uint256[]"
        },
        {
          "indexed": false,
          "internalType": "uint256[]",
          "name": "values",
          "type": "uint256[]"
        }
      ],
      "name": "TransferBatch",
      "type": "event"
    },
    {
      "anonymous": false,
      "inputs": [
        {
          "indexed": true,
          "internalType": "address",
          "name": "operator",
          "type": "address"
        },
        {
          "indexed": true,
          "internalType": "address",
          "name": "from",
          "type": "address"
        },
        {
          "indexed": true,
          "internalType": "address",
          "name": "to",
          "type": "address"
        },
        {
          "indexed": false,
          "internalType": "uint256",
          "name": "id",
          "type": "uint256"
        },
        {
          "indexed": false,
          "internalType": "uint256",
          "name": "value",
          "type": "uint256"
        }
      ],
      "name": "TransferSingle",
      "type": "event"
    },
    {
      "anonymous": false,
      "inputs": [
        {
          "indexed": false,
          "internalType": "string",
          "name": "value",
          "type": "string"
        },
        {
          "indexed": true,
          "internalType": "uint256",
          "name": "id",
          "type": "uint256"
        }
      ],
      "name": "URI",
      "type": "event"
    },
    {
      "inputs": [],
      "name": "BuurnPrice",
      "outputs": [
        {
          "internalType": "uint256",
          "name": "",
          "type": "uint256"
        }
      ],
      "stateMutability": "view",
      "type": "function"
    },
    {
      "inputs": [],
      "name": "NumberOfTokens",
      "outputs": [
        {
          "internalType": "uint256",
          "name": "",
          "type": "uint256"
        }
      ],
      "stateMutability": "view",
      "type": "function"
    },
    {
      "inputs": [],
      "name": "Price",
      "outputs": [
        {
          "internalType": "uint256",
          "name": "",
          "type": "uint256"
        }
      ],
      "stateMutability": "view",
      "type": "function"
    },
    {
      "inputs": [
        {
          "internalType": "address",
          "name": "account",
          "type": "address"
        },
        {
          "internalType": "uint256",
          "name": "id",
          "type": "uint256"
        }
      ],
      "name": "balanceOf",
      "outputs": [
        {
          "internalType": "uint256",
          "name": "",
          "type": "uint256"
        }
      ],
      "stateMutability": "view",
      "type": "function"
    },
    {
      "inputs": [
        {
          "internalType": "address[]",
          "name": "accounts",
          "type": "address[]"
        },
        {
          "internalType": "uint256[]",
          "name": "ids",
          "type": "uint256[]"
        }
      ],
      "name": "balanceOfBatch",
      "outputs": [
        {
          "internalType": "uint256[]",
          "name": "",
          "type": "uint256[]"
        }
      ],
      "stateMutability": "view",
      "type": "function"
    },
    {
      "inputs": [],
      "name": "burn",
      "outputs": [],
      "stateMutability": "payable",
      "type": "function"
    },
    {
      "inputs": [
        {
          "internalType": "address",
          "name": "account",
          "type": "address"
        },
        {
          "internalType": "uint256",
          "name": "id",
          "type": "uint256"
        },
        {
          "internalType": "uint256",
          "name": "value",
          "type": "uint256"
        }
      ],
      "name": "burn",
      "outputs": [],
      "stateMutability": "nonpayable",
      "type": "function"
    },
    {
      "inputs": [
        {
          "internalType": "address",
          "name": "account",
          "type": "address"
        },
        {
          "internalType": "uint256[]",
          "name": "ids",
          "type": "uint256[]"
        },
        {
          "internalType": "uint256[]",
          "name": "values",
          "type": "uint256[]"
        }
      ],
      "name": "burnBatch",
      "outputs": [],
      "stateMutability": "nonpayable",
      "type": "function"
    },
    {
      "inputs": [
        {
          "internalType": "address",
          "name": "",
          "type": "address"
        },
        {
          "internalType": "uint256",
          "name": "",
          "type": "uint256"
        }
      ],
      "name": "countOfTokenId",
      "outputs": [
        {
          "internalType": "uint256",
          "name": "",
          "type": "uint256"
        }
      ],
      "stateMutability": "view",
      "type": "function"
    },
    {
      "inputs": [],
      "name": "counter",
      "outputs": [
        {
          "internalType": "uint256",
          "name": "",
          "type": "uint256"
        }
      ],
      "stateMutability": "view",
      "type": "function"
    },
    {
      "inputs": [
        {
          "internalType": "uint256",
          "name": "id",
          "type": "uint256"
        }
      ],
      "name": "exists",
      "outputs": [
        {
          "internalType": "bool",
          "name": "",
          "type": "bool"
        }
      ],
      "stateMutability": "view",
      "type": "function"
    },
    {
      "inputs": [],
      "name": "getListPrice",
      "outputs": [
        {
          "internalType": "uint256",
          "name": "",
          "type": "uint256"
        }
      ],
      "stateMutability": "view",
      "type": "function"
    },
    {
      "inputs": [
        {
          "internalType": "address",
          "name": "account",
          "type": "address"
        },
        {
          "internalType": "address",
          "name": "operator",
          "type": "address"
        }
      ],
      "name": "isApprovedForAll",
      "outputs": [
        {
          "internalType": "bool",
          "name": "",
          "type": "bool"
        }
      ],
      "stateMutability": "view",
      "type": "function"
    },
    {
      "inputs": [],
      "name": "mint",
      "outputs": [],
      "stateMutability": "payable",
      "type": "function"
    },
    {
      "inputs": [
        {
          "internalType": "address",
          "name": "from",
          "type": "address"
        },
        {
          "internalType": "address",
          "name": "to",
          "type": "address"
        },
        {
          "internalType": "uint256[]",
          "name": "ids",
          "type": "uint256[]"
        },
        {
          "internalType": "uint256[]",
          "name": "values",
          "type": "uint256[]"
        },
        {
          "internalType": "bytes",
          "name": "data",
          "type": "bytes"
        }
      ],
      "name": "safeBatchTransferFrom",
      "outputs": [],
      "stateMutability": "nonpayable",
      "type": "function"
    },
    {
      "inputs": [
        {
          "internalType": "address",
          "name": "from",
          "type": "address"
        },
        {
          "internalType": "address",
          "name": "to",
          "type": "address"
        },
        {
          "internalType": "uint256",
          "name": "id",
          "type": "uint256"
        },
        {
          "internalType": "uint256",
          "name": "value",
          "type": "uint256"
        },
        {
          "internalType": "bytes",
          "name": "data",
          "type": "bytes"
        }
      ],
      "name": "safeTransferFrom",
      "outputs": [],
      "stateMutability": "nonpayable",
      "type": "function"
    },
    {
      "inputs": [
        {
          "internalType": "address",
          "name": "operator",
          "type": "address"
        },
        {
          "internalType": "bool",
          "name": "approved",
          "type": "bool"
        }
      ],
      "name": "setApprovalForAll",
      "outputs": [],
      "stateMutability": "nonpayable",
      "type": "function"
    },
    {
      "inputs": [
        {
          "internalType": "string",
          "name": "newuri",
          "type": "string"
        }
      ],
      "name": "setURI",
      "outputs": [],
      "stateMutability": "nonpayable",
      "type": "function"
    },
    {
      "inputs": [
        {
          "internalType": "bytes4",
          "name": "interfaceId",
          "type": "bytes4"
        }
      ],
      "name": "supportsInterface",
      "outputs": [
        {
          "internalType": "bool",
          "name": "",
          "type": "bool"
        }
      ],
      "stateMutability": "view",
      "type": "function"
    },
    {
      "inputs": [
        {
          "internalType": "uint256",
          "name": "",
          "type": "uint256"
        }
      ],
      "name": "tokenOwner",
      "outputs": [
        {
          "internalType": "address",
          "name": "",
          "type": "address"
        }
      ],
      "stateMutability": "view",
      "type": "function"
    },
    {
      "inputs": [],
      "name": "totalSupply",
      "outputs": [
        {
          "internalType": "uint256",
          "name": "",
          "type": "uint256"
        }
      ],
      "stateMutability": "view",
      "type": "function"
    },
    {
      "inputs": [
        {
          "internalType": "uint256",
          "name": "id",
          "type": "uint256"
        }
      ],
      "name": "totalSupply",
      "outputs": [
        {
          "internalType": "uint256",
          "name": "",
          "type": "uint256"
        }
      ],
      "stateMutability": "view",
      "type": "function"
    },
    {
      "inputs": [],
      "name": "totalSupplyy",
      "outputs": [
        {
          "internalType": "uint256",
          "name": "",
          "type": "uint256"
        }
      ],
      "stateMutability": "view",
      "type": "function"
    },
    {
      "inputs": [
        {
          "internalType": "uint256",
          "name": "",
          "type": "uint256"
        }
      ],
      "name": "uri",
      "outputs": [
        {
          "internalType": "string",
          "name": "",
          "type": "string"
        }
      ],
      "stateMutability": "view",
      "type": "function"
    }
  ],
  "bytecode": "0x608060405266038d7ea4c680006007553480156200001c57600080fd5b5060405162003b3c38038062003b3c833981810160405281019062000042919062000247565b8162000054816200006460201b60201c565b5080600a819055505050620005d5565b8060029081620000759190620004ee565b5050565b6000604051905090565b600080fd5b600080fd5b600080fd5b600080fd5b6000601f19601f8301169050919050565b7f4e487b7100000000000000000000000000000000000000000000000000000000600052604160045260246000fd5b620000e28262000097565b810181811067ffffffffffffffff82111715620001045762000103620000a8565b5b80604052505050565b60006200011962000079565b9050620001278282620000d7565b919050565b600067ffffffffffffffff8211156200014a5762000149620000a8565b5b620001558262000097565b9050602081019050919050565b60005b838110156200018257808201518184015260208101905062000165565b60008484015250505050565b6000620001a56200019f846200012c565b6200010d565b905082815260208101848484011115620001c457620001c362000092565b5b620001d184828562000162565b509392505050565b600082601f830112620001f157620001f06200008d565b5b8151620002038482602086016200018e565b91505092915050565b6000819050919050565b62000221816200020c565b81146200022d57600080fd5b50565b600081519050620002418162000216565b92915050565b6000806040838503121562000261576200026062000083565b5b600083015167ffffffffffffffff81111562000282576200028162000088565b5b6200029085828601620001d9565b9250506020620002a38582860162000230565b9150509250929050565b600081519050919050565b7f4e487b7100000000000000000000000000000000000000000000000000000000600052602260045260246000fd5b600060028204905060018216806200030057607f821691505b602082108103620003165762000315620002b8565b5b50919050565b60008190508160005260206000209050919050565b60006020601f8301049050919050565b600082821b905092915050565b600060088302620003807fffffffffffffffffffffffffffffffffffffffffffffffffffffffffffffffff8262000341565b6200038c868362000341565b95508019841693508086168417925050509392505050565b6000819050919050565b6000620003cf620003c9620003c3846200020c565b620003a4565b6200020c565b9050919050565b6000819050919050565b620003eb83620003ae565b62000403620003fa82620003d6565b8484546200034e565b825550505050565b600090565b6200041a6200040b565b62000427818484620003e0565b505050565b5b818110156200044f576200044360008262000410565b6001810190506200042d565b5050565b601f8211156200049e5762000468816200031c565b620004738462000331565b8101602085101562000483578190505b6200049b620004928562000331565b8301826200042c565b50505b505050565b600082821c905092915050565b6000620004c360001984600802620004a3565b1980831691505092915050565b6000620004de8383620004b0565b9150826002028217905092915050565b620004f982620002ad565b67ffffffffffffffff811115620005155762000514620000a8565b5b620005218254620002e7565b6200052e82828562000453565b600060209050601f83116001811462000566576000841562000551578287015190505b6200055d8582620004d0565b865550620005cd565b601f19841662000576866200031c565b60005b82811015620005a05784890151825560018201915060208501945060208101905062000579565b86831015620005c05784890151620005bc601f891682620004b0565b8355505b6001600288020188555050505b505050505050565b61355780620005e56000396000f3fe60806040526004361061014a5760003560e01c806368f1945f116100b6578063a22cb4651161006f578063a22cb46514610479578063bd85b039146104a2578063e7764966146104df578063e985e9c51461051c578063f242432a14610559578063f5298aca146105825761014a565b806368f1945f146103795780636b20c454146103a45780636e1ad85c146103cd57806370f9b3bb146103f857806396b797ea146104235780639dfde2011461044e5761014a565b80631caaa487116101085780631caaa487146102645780632eb2c2d6146102a157806344df8e70146102ca5780634e1273f4146102d45780634f558e791461031157806361bc221a1461034e5761014a565b8062fdd58e1461014f57806301ffc9a71461018c57806302fe5305146101c95780630e89341c146101f25780631249c58b1461022f57806318160ddd14610239575b600080fd5b34801561015b57600080fd5b506101766004803603810190610171919061216b565b6105ab565b60405161018391906121ba565b60405180910390f35b34801561019857600080fd5b506101b360048036038101906101ae919061222d565b610605565b6040516101c09190612275565b60405180910390f35b3480156101d557600080fd5b506101f060048036038101906101eb91906123d6565b6106e7565b005b3480156101fe57600080fd5b506102196004803603810190610214919061241f565b6106f3565b60405161022691906124cb565b60405180910390f35b610237610787565b005b34801561024557600080fd5b5061024e6108e1565b60405161025b91906121ba565b60405180910390f35b34801561027057600080fd5b5061028b6004803603810190610286919061241f565b6108eb565b60405161029891906124fc565b60405180910390f35b3480156102ad57600080fd5b506102c860048036038101906102c39190612680565b61091e565b005b6102d26109c6565b005b3480156102e057600080fd5b506102fb60048036038101906102f69190612812565b610bda565b6040516103089190612948565b60405180910390f35b34801561031d57600080fd5b506103386004803603810190610333919061241f565b610ce3565b6040516103459190612275565b60405180910390f35b34801561035a57600080fd5b50610363610cf7565b60405161037091906121ba565b60405180910390f35b34801561038557600080fd5b5061038e610cfd565b60405161039b91906121ba565b60405180910390f35b3480156103b057600080fd5b506103cb60048036038101906103c6919061296a565b610d07565b005b3480156103d957600080fd5b506103e2610db3565b6040516103ef91906121ba565b60405180910390f35b34801561040457600080fd5b5061040d610db9565b60405161041a91906121ba565b60405180910390f35b34801561042f57600080fd5b50610438610e31565b60405161044591906121ba565b60405180910390f35b34801561045a57600080fd5b50610463610e80565b60405161047091906121ba565b60405180910390f35b34801561048557600080fd5b506104a0600480360381019061049b9190612a21565b610ed4565b005b3480156104ae57600080fd5b506104c960048036038101906104c4919061241f565b610eea565b6040516104d691906121ba565b60405180910390f35b3480156104eb57600080fd5b506105066004803603810190610501919061216b565b610f07565b60405161051391906121ba565b60405180910390f35b34801561052857600080fd5b50610543600480360381019061053e9190612a61565b610f38565b6040516105509190612275565b60405180910390f35b34801561056557600080fd5b50610580600480360381019061057b9190612aa1565b610fcc565b005b34801561058e57600080fd5b506105a960048036038101906105a49190612b38565b611074565b005b600080600083815260200190815260200160002060008473ffffffffffffffffffffffffffffffffffffffff1673ffffffffffffffffffffffffffffffffffffffff16815260200190815260200160002054905092915050565b60007fd9b67a26000000000000000000000000000000000000000000000000000000007bffffffffffffffffffffffffffffffffffffffffffffffffffffffff1916827bffffffffffffffffffffffffffffffffffffffffffffffffffffffff191614806106d057507f0e89341c000000000000000000000000000000000000000000000000000000007bffffffffffffffffffffffffffffffffffffffffffffffffffffffff1916827bffffffffffffffffffffffffffffffffffffffffffffffffffffffff1916145b806106e057506106df82611120565b5b9050919050565b6106f08161118a565b50565b60606002805461070290612bba565b80601f016020809104026020016040519081016040528092919081815260200182805461072e90612bba565b801561077b5780601f106107505761010080835404028352916020019161077b565b820191906000526020600020905b81548152906001019060200180831161075e57829003601f168201915b50505050509050919050565b6000610791610e80565b90508034146107d5576040517f08c379a00000000000000000000000000000000000000000000000000000000081526004016107cc90612c37565b60405180910390fd5b600560008154809291906107e890612c86565b91905055506006600081548092919061080090612c86565b919050555061082233600060016040518060200160405280600081525061119d565b3360086000600554815260200190815260200160002060006101000a81548173ffffffffffffffffffffffffffffffffffffffff021916908373ffffffffffffffffffffffffffffffffffffffff160217905550600960003373ffffffffffffffffffffffffffffffffffffffff1673ffffffffffffffffffffffffffffffffffffffff168152602001908152602001600020600554908060018154018082558091505060019003906000526020600020016000909190919091505550565b6000600454905090565b60086020528060005260406000206000915054906101000a900473ffffffffffffffffffffffffffffffffffffffff1681565b6000610928611236565b90508073ffffffffffffffffffffffffffffffffffffffff168673ffffffffffffffffffffffffffffffffffffffff161415801561096d575061096b8682610f38565b155b156109b15780866040517fe237d9220000000000000000000000000000000000000000000000000000000081526004016109a8929190612cce565b60405180910390fd5b6109be868686868661123e565b505050505050565b6000600960003373ffffffffffffffffffffffffffffffffffffffff1673ffffffffffffffffffffffffffffffffffffffff1681526020019081526020016000208054905011610a4b576040517f08c379a0000000000000000000000000000000000000000000000000000000008152600401610a4290612d69565b60405180910390fd5b6000600960003373ffffffffffffffffffffffffffffffffffffffff1673ffffffffffffffffffffffffffffffffffffffff1681526020019081526020016000208054905090506000600960003373ffffffffffffffffffffffffffffffffffffffff1673ffffffffffffffffffffffffffffffffffffffff168152602001908152602001600020600183610ae09190612d89565b81548110610af157610af0612dbd565b5b9060005260206000200154905060066000815480929190610b1190612dec565b9190505550610b233360006001611074565b600960003373ffffffffffffffffffffffffffffffffffffffff1673ffffffffffffffffffffffffffffffffffffffff168152602001908152602001600020805480610b7257610b71612e15565b5b600190038181906000526020600020016000905590553373ffffffffffffffffffffffffffffffffffffffff166108fc610baa610e80565b9081150290604051600060405180830381858888f19350505050158015610bd5573d6000803e3d6000fd5b505050565b60608151835114610c2657815183516040517f5b059991000000000000000000000000000000000000000000000000000000008152600401610c1d929190612e44565b60405180910390fd5b6000835167ffffffffffffffff811115610c4357610c426122ab565b5b604051908082528060200260200182016040528015610c715781602001602082028036833780820191505090505b50905060005b8451811015610cd857610cae610c96828761133690919063ffffffff16565b610ca9838761134a90919063ffffffff16565b6105ab565b828281518110610cc157610cc0612dbd565b5b602002602001018181525050806001019050610c77565b508091505092915050565b600080610cef83610eea565b119050919050565b60055481565b6000600754905090565b610d0f611236565b73ffffffffffffffffffffffffffffffffffffffff168373ffffffffffffffffffffffffffffffffffffffff1614158015610d585750610d5683610d51611236565b610f38565b155b15610da357610d65611236565b836040517fe237d922000000000000000000000000000000000000000000000000000000008152600401610d9a929190612cce565b60405180910390fd5b610dae83838361135e565b505050565b60065481565b60008060065403610dcd5760009050610e2e565b60006001600654610dde9190612d89565b905060008103610df757655af3107a4000915050610e2e565b6000611f40600283610e099190612fad565b670de0b6b3a7640000610e1c9190612ff8565b610e269190613069565b905080925050505b90565b600080600960003373ffffffffffffffffffffffffffffffffffffffff1673ffffffffffffffffffffffffffffffffffffffff1681526020019081526020016000208054905090508091505090565b60008060065403610e9957655af3107a40009050610ed1565b6000611f406002600654610ead9190612fad565b670de0b6b3a7640000610ec09190612ff8565b610eca9190613069565b9050809150505b90565b610ee6610edf611236565b83836113f2565b5050565b600060036000838152602001908152602001600020549050919050565b60096020528160005260406000208181548110610f2357600080fd5b90600052602060002001600091509150505481565b6000600160008473ffffffffffffffffffffffffffffffffffffffff1673ffffffffffffffffffffffffffffffffffffffff16815260200190815260200160002060008373ffffffffffffffffffffffffffffffffffffffff1673ffffffffffffffffffffffffffffffffffffffff16815260200190815260200160002060009054906101000a900460ff16905092915050565b6000610fd6611236565b90508073ffffffffffffffffffffffffffffffffffffffff168673ffffffffffffffffffffffffffffffffffffffff161415801561101b57506110198682610f38565b155b1561105f5780866040517fe237d922000000000000000000000000000000000000000000000000000000008152600401611056929190612cce565b60405180910390fd5b61106c8686868686611562565b505050505050565b61107c611236565b73ffffffffffffffffffffffffffffffffffffffff168373ffffffffffffffffffffffffffffffffffffffff16141580156110c557506110c3836110be611236565b610f38565b155b15611110576110d2611236565b836040517fe237d922000000000000000000000000000000000000000000000000000000008152600401611107929190612cce565b60405180910390fd5b61111b83838361166d565b505050565b60007f01ffc9a7000000000000000000000000000000000000000000000000000000007bffffffffffffffffffffffffffffffffffffffffffffffffffffffff1916827bffffffffffffffffffffffffffffffffffffffffffffffffffffffff1916149050919050565b80600290816111999190613246565b5050565b600073ffffffffffffffffffffffffffffffffffffffff168473ffffffffffffffffffffffffffffffffffffffff160361120f5760006040517f57f447ce00000000000000000000000000000000000000000000000000000000815260040161120691906124fc565b60405180910390fd5b60008061121c8585611714565b9150915061122e600087848487611744565b505050505050565b600033905090565b600073ffffffffffffffffffffffffffffffffffffffff168473ffffffffffffffffffffffffffffffffffffffff16036112b05760006040517f57f447ce0000000000000000000000000000000000000000000000000000000081526004016112a791906124fc565b60405180910390fd5b600073ffffffffffffffffffffffffffffffffffffffff168573ffffffffffffffffffffffffffffffffffffffff16036113225760006040517f01a8351400000000000000000000000000000000000000000000000000000000815260040161131991906124fc565b60405180910390fd5b61132f8585858585611744565b5050505050565b600060208202602084010151905092915050565b600060208202602084010151905092915050565b600073ffffffffffffffffffffffffffffffffffffffff168373ffffffffffffffffffffffffffffffffffffffff16036113d05760006040517f01a835140000000000000000000000000000000000000000000000000000000081526004016113c791906124fc565b60405180910390fd5b6113ed836000848460405180602001604052806000815250611744565b505050565b600073ffffffffffffffffffffffffffffffffffffffff168273ffffffffffffffffffffffffffffffffffffffff16036114645760006040517fced3e10000000000000000000000000000000000000000000000000000000000815260040161145b91906124fc565b60405180910390fd5b80600160008573ffffffffffffffffffffffffffffffffffffffff1673ffffffffffffffffffffffffffffffffffffffff16815260200190815260200160002060008473ffffffffffffffffffffffffffffffffffffffff1673ffffffffffffffffffffffffffffffffffffffff16815260200190815260200160002060006101000a81548160ff0219169083151502179055508173ffffffffffffffffffffffffffffffffffffffff168373ffffffffffffffffffffffffffffffffffffffff167f17307eab39ab6107e8899845ad3d59bd9653f200f220920489ca2b5937696c31836040516115559190612275565b60405180910390a3505050565b600073ffffffffffffffffffffffffffffffffffffffff168473ffffffffffffffffffffffffffffffffffffffff16036115d45760006040517f57f447ce0000000000000000000000000000000000000000000000000000000081526004016115cb91906124fc565b60405180910390fd5b600073ffffffffffffffffffffffffffffffffffffffff168573ffffffffffffffffffffffffffffffffffffffff16036116465760006040517f01a8351400000000000000000000000000000000000000000000000000000000815260040161163d91906124fc565b60405180910390fd5b6000806116538585611714565b915091506116648787848487611744565b50505050505050565b600073ffffffffffffffffffffffffffffffffffffffff168373ffffffffffffffffffffffffffffffffffffffff16036116df5760006040517f01a835140000000000000000000000000000000000000000000000000000000081526004016116d691906124fc565b60405180910390fd5b6000806116ec8484611714565b9150915061170d856000848460405180602001604052806000815250611744565b5050505050565b60608060405191506001825283602083015260408201905060018152826020820152604081016040529250929050565b611750858585856117f6565b600073ffffffffffffffffffffffffffffffffffffffff168473ffffffffffffffffffffffffffffffffffffffff16146117ef57600061178e611236565b905060018451036117de5760006117af60008661134a90919063ffffffff16565b905060006117c760008661134a90919063ffffffff16565b90506117d7838989858589611808565b50506117ed565b6117ec8187878787876119bc565b5b505b5050505050565b61180284848484611b70565b50505050565b60008473ffffffffffffffffffffffffffffffffffffffff163b11156119b4578373ffffffffffffffffffffffffffffffffffffffff1663f23a6e6187878686866040518663ffffffff1660e01b815260040161186995949392919061336d565b6020604051808303816000875af19250505080156118a557506040513d601f19601f820116820180604052508101906118a291906133dc565b60015b611929573d80600081146118d5576040519150601f19603f3d011682016040523d82523d6000602084013e6118da565b606091505b50600081510361192157846040517f57f447ce00000000000000000000000000000000000000000000000000000000815260040161191891906124fc565b60405180910390fd5b805181602001fd5b63f23a6e6160e01b7bffffffffffffffffffffffffffffffffffffffffffffffffffffffff1916817bffffffffffffffffffffffffffffffffffffffffffffffffffffffff1916146119b257846040517f57f447ce0000000000000000000000000000000000000000000000000000000081526004016119a991906124fc565b60405180910390fd5b505b505050505050565b60008473ffffffffffffffffffffffffffffffffffffffff163b1115611b68578373ffffffffffffffffffffffffffffffffffffffff1663bc197c8187878686866040518663ffffffff1660e01b8152600401611a1d959493929190613409565b6020604051808303816000875af1925050508015611a5957506040513d601f19601f82011682018060405250810190611a5691906133dc565b60015b611add573d8060008114611a89576040519150601f19603f3d011682016040523d82523d6000602084013e611a8e565b606091505b506000815103611ad557846040517f57f447ce000000000000000000000000000000000000000000000000000000008152600401611acc91906124fc565b60405180910390fd5b805181602001fd5b63bc197c8160e01b7bffffffffffffffffffffffffffffffffffffffffffffffffffffffff1916817bffffffffffffffffffffffffffffffffffffffffffffffffffffffff191614611b6657846040517f57f447ce000000000000000000000000000000000000000000000000000000008152600401611b5d91906124fc565b60405180910390fd5b505b505050505050565b611b7c84848484611d1b565b600073ffffffffffffffffffffffffffffffffffffffff168473ffffffffffffffffffffffffffffffffffffffff1603611c56576000805b8351811015611c3a576000838281518110611bd257611bd1612dbd565b5b602002602001015190508060036000878581518110611bf457611bf3612dbd565b5b602002602001015181526020019081526020016000206000828254611c199190613471565b925050819055508083611c2c9190613471565b925050806001019050611bb4565b508060046000828254611c4d9190613471565b92505081905550505b600073ffffffffffffffffffffffffffffffffffffffff168373ffffffffffffffffffffffffffffffffffffffff1603611d15576000805b8351811015611d02576000838281518110611cac57611cab612dbd565b5b602002602001015190508060036000878581518110611cce57611ccd612dbd565b5b6020026020010151815260200190815260200160002060008282540392505081905550808301925050806001019050611c8e565b5080600460008282540392505081905550505b50505050565b8051825114611d6557815181516040517f5b059991000000000000000000000000000000000000000000000000000000008152600401611d5c929190612e44565b60405180910390fd5b6000611d6f611236565b905060005b8351811015611f7e576000611d92828661134a90919063ffffffff16565b90506000611da9838661134a90919063ffffffff16565b9050600073ffffffffffffffffffffffffffffffffffffffff168873ffffffffffffffffffffffffffffffffffffffff1614611ed657600080600084815260200190815260200160002060008a73ffffffffffffffffffffffffffffffffffffffff1673ffffffffffffffffffffffffffffffffffffffff16815260200190815260200160002054905081811015611e7e57888183856040517f03dee4c5000000000000000000000000000000000000000000000000000000008152600401611e7594939291906134a5565b60405180910390fd5b81810360008085815260200190815260200160002060008b73ffffffffffffffffffffffffffffffffffffffff1673ffffffffffffffffffffffffffffffffffffffff16815260200190815260200160002081905550505b600073ffffffffffffffffffffffffffffffffffffffff168773ffffffffffffffffffffffffffffffffffffffff1614611f71578060008084815260200190815260200160002060008973ffffffffffffffffffffffffffffffffffffffff1673ffffffffffffffffffffffffffffffffffffffff1681526020019081526020016000206000828254611f699190613471565b925050819055505b5050806001019050611d74565b50600183510361203d576000611f9e60008561134a90919063ffffffff16565b90506000611fb660008561134a90919063ffffffff16565b90508573ffffffffffffffffffffffffffffffffffffffff168773ffffffffffffffffffffffffffffffffffffffff168473ffffffffffffffffffffffffffffffffffffffff167fc3d58168c5ae7397731d063d5bbf3d657854427343f4c083240f7aacaa2d0f62858560405161202e929190612e44565b60405180910390a450506120bc565b8373ffffffffffffffffffffffffffffffffffffffff168573ffffffffffffffffffffffffffffffffffffffff168273ffffffffffffffffffffffffffffffffffffffff167f4a39dc06d4c0dbc64b70af90fd698a233a518aa5d07e595d983b8c0526c8f7fb86866040516120b39291906134ea565b60405180910390a45b5050505050565b6000604051905090565b600080fd5b600080fd5b600073ffffffffffffffffffffffffffffffffffffffff82169050919050565b6000612102826120d7565b9050919050565b612112816120f7565b811461211d57600080fd5b50565b60008135905061212f81612109565b92915050565b6000819050919050565b61214881612135565b811461215357600080fd5b50565b6000813590506121658161213f565b92915050565b60008060408385031215612182576121816120cd565b5b600061219085828601612120565b92505060206121a185828601612156565b9150509250929050565b6121b481612135565b82525050565b60006020820190506121cf60008301846121ab565b92915050565b60007fffffffff0000000000000000000000000000000000000000000000000000000082169050919050565b61220a816121d5565b811461221557600080fd5b50565b60008135905061222781612201565b92915050565b600060208284031215612243576122426120cd565b5b600061225184828501612218565b91505092915050565b60008115159050919050565b61226f8161225a565b82525050565b600060208201905061228a6000830184612266565b92915050565b600080fd5b600080fd5b6000601f19601f8301169050919050565b7f4e487b7100000000000000000000000000000000000000000000000000000000600052604160045260246000fd5b6122e38261229a565b810181811067ffffffffffffffff82111715612302576123016122ab565b5b80604052505050565b60006123156120c3565b905061232182826122da565b919050565b600067ffffffffffffffff821115612341576123406122ab565b5b61234a8261229a565b9050602081019050919050565b82818337600083830152505050565b600061237961237484612326565b61230b565b90508281526020810184848401111561239557612394612295565b5b6123a0848285612357565b509392505050565b600082601f8301126123bd576123bc612290565b5b81356123cd848260208601612366565b91505092915050565b6000602082840312156123ec576123eb6120cd565b5b600082013567ffffffffffffffff81111561240a576124096120d2565b5b612416848285016123a8565b91505092915050565b600060208284031215612435576124346120cd565b5b600061244384828501612156565b91505092915050565b600081519050919050565b600082825260208201905092915050565b60005b8381101561248657808201518184015260208101905061246b565b60008484015250505050565b600061249d8261244c565b6124a78185612457565b93506124b7818560208601612468565b6124c08161229a565b840191505092915050565b600060208201905081810360008301526124e58184612492565b905092915050565b6124f6816120f7565b82525050565b600060208201905061251160008301846124ed565b92915050565b600067ffffffffffffffff821115612532576125316122ab565b5b602082029050602081019050919050565b600080fd5b600061255b61255684612517565b61230b565b9050808382526020820190506020840283018581111561257e5761257d612543565b5b835b818110156125a757806125938882612156565b845260208401935050602081019050612580565b5050509392505050565b600082601f8301126125c6576125c5612290565b5b81356125d6848260208601612548565b91505092915050565b600067ffffffffffffffff8211156125fa576125f96122ab565b5b6126038261229a565b9050602081019050919050565b600061262361261e846125df565b61230b565b90508281526020810184848401111561263f5761263e612295565b5b61264a848285612357565b509392505050565b600082601f83011261266757612666612290565b5b8135612677848260208601612610565b91505092915050565b600080600080600060a0868803121561269c5761269b6120cd565b5b60006126aa88828901612120565b95505060206126bb88828901612120565b945050604086013567ffffffffffffffff8111156126dc576126db6120d2565b5b6126e8888289016125b1565b935050606086013567ffffffffffffffff811115612709576127086120d2565b5b612715888289016125b1565b925050608086013567ffffffffffffffff811115612736576127356120d2565b5b61274288828901612652565b9150509295509295909350565b600067ffffffffffffffff82111561276a576127696122ab565b5b602082029050602081019050919050565b600061278e6127898461274f565b61230b565b905080838252602082019050602084028301858111156127b1576127b0612543565b5b835b818110156127da57806127c68882612120565b8452602084019350506020810190506127b3565b5050509392505050565b600082601f8301126127f9576127f8612290565b5b813561280984826020860161277b565b91505092915050565b60008060408385031215612829576128286120cd565b5b600083013567ffffffffffffffff811115612847576128466120d2565b5b612853858286016127e4565b925050602083013567ffffffffffffffff811115612874576128736120d2565b5b612880858286016125b1565b9150509250929050565b600081519050919050565b600082825260208201905092915050565b6000819050602082019050919050565b6128bf81612135565b82525050565b60006128d183836128b6565b60208301905092915050565b6000602082019050919050565b60006128f58261288a565b6128ff8185612895565b935061290a836128a6565b8060005b8381101561293b57815161292288826128c5565b975061292d836128dd565b92505060018101905061290e565b5085935050505092915050565b6000602082019050818103600083015261296281846128ea565b905092915050565b600080600060608486031215612983576129826120cd565b5b600061299186828701612120565b935050602084013567ffffffffffffffff8111156129b2576129b16120d2565b5b6129be868287016125b1565b925050604084013567ffffffffffffffff8111156129df576129de6120d2565b5b6129eb868287016125b1565b9150509250925092565b6129fe8161225a565b8114612a0957600080fd5b50565b600081359050612a1b816129f5565b92915050565b60008060408385031215612a3857612a376120cd565b5b6000612a4685828601612120565b9250506020612a5785828601612a0c565b9150509250929050565b60008060408385031215612a7857612a776120cd565b5b6000612a8685828601612120565b9250506020612a9785828601612120565b9150509250929050565b600080600080600060a08688031215612abd57612abc6120cd565b5b6000612acb88828901612120565b9550506020612adc88828901612120565b9450506040612aed88828901612156565b9350506060612afe88828901612156565b925050608086013567ffffffffffffffff811115612b1f57612b1e6120d2565b5b612b2b88828901612652565b9150509295509295909350565b600080600060608486031215612b5157612b506120cd565b5b6000612b5f86828701612120565b9350506020612b7086828701612156565b9250506040612b8186828701612156565b9150509250925092565b7f4e487b7100000000000000000000000000000000000000000000000000000000600052602260045260246000fd5b60006002820490506001821680612bd257607f821691505b602082108103612be557612be4612b8b565b5b50919050565b7f706c6561736520656e74657220636f727265637420616d6f756e740000000000600082015250565b6000612c21601b83612457565b9150612c2c82612beb565b602082019050919050565b60006020820190508181036000830152612c5081612c14565b9050919050565b7f4e487b7100000000000000000000000000000000000000000000000000000000600052601160045260246000fd5b6000612c9182612135565b91507fffffffffffffffffffffffffffffffffffffffffffffffffffffffffffffffff8203612cc357612cc2612c57565b5b600182019050919050565b6000604082019050612ce360008301856124ed565b612cf060208301846124ed565b9392505050565b7f536f72727920646f6e2774206861766520656e6f75676820746f6b656e732c5060008201527f6c65617365206d696e7400000000000000000000000000000000000000000000602082015250565b6000612d53602a83612457565b9150612d5e82612cf7565b604082019050919050565b60006020820190508181036000830152612d8281612d46565b9050919050565b6000612d9482612135565b9150612d9f83612135565b9250828203905081811115612db757612db6612c57565b5b92915050565b7f4e487b7100000000000000000000000000000000000000000000000000000000600052603260045260246000fd5b6000612df782612135565b915060008203612e0a57612e09612c57565b5b600182039050919050565b7f4e487b7100000000000000000000000000000000000000000000000000000000600052603160045260246000fd5b6000604082019050612e5960008301856121ab565b612e6660208301846121ab565b9392505050565b60008160011c9050919050565b6000808291508390505b6001851115612ec457808604811115612ea057612e9f612c57565b5b6001851615612eaf5780820291505b8081029050612ebd85612e6d565b9450612e84565b94509492505050565b600082612edd5760019050612f99565b81612eeb5760009050612f99565b8160018114612f015760028114612f0b57612f3a565b6001915050612f99565b60ff841115612f1d57612f1c612c57565b5b8360020a915084821115612f3457612f33612c57565b5b50612f99565b5060208310610133831016604e8410600b8410161715612f6f5782820a905083811115612f6a57612f69612c57565b5b612f99565b612f7c8484846001612e7a565b92509050818404811115612f9357612f92612c57565b5b81810290505b9392505050565b600060ff82169050919050565b6000612fb882612135565b9150612fc383612fa0565b9250612ff07fffffffffffffffffffffffffffffffffffffffffffffffffffffffffffffffff8484612ecd565b905092915050565b600061300382612135565b915061300e83612135565b925082820261301c81612135565b9150828204841483151761303357613032612c57565b5b5092915050565b7f4e487b7100000000000000000000000000000000000000000000000000000000600052601260045260246000fd5b600061307482612135565b915061307f83612135565b92508261308f5761308e61303a565b5b828204905092915050565b60008190508160005260206000209050919050565b60006020601f8301049050919050565b600082821b905092915050565b6000600883026130fc7fffffffffffffffffffffffffffffffffffffffffffffffffffffffffffffffff826130bf565b61310686836130bf565b95508019841693508086168417925050509392505050565b6000819050919050565b600061314361313e61313984612135565b61311e565b612135565b9050919050565b6000819050919050565b61315d83613128565b6131716131698261314a565b8484546130cc565b825550505050565b600090565b613186613179565b613191818484613154565b505050565b5b818110156131b5576131aa60008261317e565b600181019050613197565b5050565b601f8211156131fa576131cb8161309a565b6131d4846130af565b810160208510156131e3578190505b6131f76131ef856130af565b830182613196565b50505b505050565b600082821c905092915050565b600061321d600019846008026131ff565b1980831691505092915050565b6000613236838361320c565b9150826002028217905092915050565b61324f8261244c565b67ffffffffffffffff811115613268576132676122ab565b5b6132728254612bba565b61327d8282856131b9565b600060209050601f8311600181146132b0576000841561329e578287015190505b6132a8858261322a565b865550613310565b601f1984166132be8661309a565b60005b828110156132e6578489015182556001820191506020850194506020810190506132c1565b8683101561330357848901516132ff601f89168261320c565b8355505b6001600288020188555050505b505050505050565b600081519050919050565b600082825260208201905092915050565b600061333f82613318565b6133498185613323565b9350613359818560208601612468565b6133628161229a565b840191505092915050565b600060a08201905061338260008301886124ed565b61338f60208301876124ed565b61339c60408301866121ab565b6133a960608301856121ab565b81810360808301526133bb8184613334565b90509695505050505050565b6000815190506133d681612201565b92915050565b6000602082840312156133f2576133f16120cd565b5b6000613400848285016133c7565b91505092915050565b600060a08201905061341e60008301886124ed565b61342b60208301876124ed565b818103604083015261343d81866128ea565b9050818103606083015261345181856128ea565b905081810360808301526134658184613334565b90509695505050505050565b600061347c82612135565b915061348783612135565b925082820190508082111561349f5761349e612c57565b5b92915050565b60006080820190506134ba60008301876124ed565b6134c760208301866121ab565b6134d460408301856121ab565b6134e160608301846121ab565b95945050505050565b6000604082019050818103600083015261350481856128ea565b9050818103602083015261351881846128ea565b9050939250505056fea2646970667358221220de06a3c651f89b262058741ffc2df4043057bfff00eda2dfaba848dbceaf608c64736f6c63430008180033",
  "linkReferences": {},
  "deployedLinkReferences": {}
}